:100000000C942A000C9449020C9447000C9447006D
:100010000C9447000C9447000C9453020C94470036
:100020000C9447000C9484020C9447000C944700F5
:100030000C9447000C9447000C9447000C94470024
:100040000C9447000C9447000C9447000C94470014
:100050000C94470011241FBECFE5D8E0DEBFCDBF12
:1000600011E0A0E6B0E0E4E8F1E102C005900D92F5
:10007000A232B107D9F711E0A2E2B1E001C01D92AE
:10008000A833B107E1F70E94A1050C94C0080C94B5
:1000900000009AB198699AB989B910BC80B5866890
:1000A00080BD08955D9BFECF8CB90895CF93DF93FB
:1000B000EC018881882331F021960E9452008991B9
:1000C0008823D9F7DF91CF9108958BB1881F8827B6
:1000D000881F08950E946500882311F08CB108954F
:1000E0000895CF92DF92EF92FF920F931F93CF93D9
:1000F000DF937B018230A8F08250C82EDD24EB0113
:10010000CC0DDD1D21968B010E946A00F8018193C0
:100110008F01EC17FD07C1F70894C11CD11CEC0C32
:10012000FD1CF7011082DF91CF911F910F91FF907D
:10013000EF90DF90CF9008951F93CF93DF9320E04F
:1001400030E048EC52E40E94D2070E94130724E6F4
:1001500030E040E050E00E943508132FD62FC72F23
:10016000822F0E945200812F0E9452008D2F0E94E8
:1001700052008C2F0E945200DF91CF911F91089561
:10018000CF92DF92EF92FF920F931F93CF93DF9363
:1001900000D000D0CDB7DEB719821A821B821C8234
:1001A0008E010F5F1F4F0F2EF5E0EF2EFF24F02D75
:1001B000EC0EFD1E0E9465008823E1F30E946A0098
:1001C000F801808311820E5F1F4F0E151F0591F7F6
:1001D00069817A81882777FD8095982F0E9446074C
:1001E0006B017C016B817C81882777FD8095982F3E
:1001F0000E94460720E030E048EC52E40E94AB0643
:100200009B01AC01C701B6010E944706462F572F3C
:10021000682F792FCB01BA010F900F900F900F909C
:10022000DF91CF911F910F91FF90EF90DF90CF90D2
:100230000895C49A8FE891E00197F1F700C000009B
:10024000C4988FE19EE40197F1F700C00000089583
:10025000CF93882314F4C09A01C0C098C82F86FF9A
:1002600002C0C19A01C0C198C5FF02C0C29A01C0B4
:10027000C298C4FF02C0C39A01C0C3980E9419016A
:10028000C3FF02C0C09A01C0C098C2FF02C0C19A99
:1002900001C0C198C1FF02C0C29A01C0C298C0FF8C
:1002A00002C0C39A01C0C3980E941901CF9108955A
:1002B00098B39F7998BB0E9428010895CF93C62FC9
:1002C000813069F4862F81580E9458016C2F70E0AC
:1002D00061587F4F70931F0160931E010EC08230E2
:1002E00061F4862F81540E9458016C2F70E0615494
:1002F0007F4F70931F0160931E01CF9108958091ED
:100300001E0190911F018F38910569F482E090E001
:1003100061E070E00E945E0180EC90E090931F012C
:1003200080931E0108958F3C910561F481E090E077
:1003300061E070E00E945E0180E890E090931F0110
:1003400080931E010895C598C69A0E942801809145
:100350001E0190911F01019690931F0180931E0131
:100360000895CF93DF93EC018881882331F02196A3
:100370000E94A30189918823D9F7DF91CF91089535
:100380008F929F92AF92BF92CF92DF92EF92FF92A5
:100390000F931F93CF93DF93CDB7DEB72A970FB696
:1003A000F894DEBF0FBECDBF25E07E010894E11CAE
:1003B000F11CF701322F11923A95E9F70F2EF6E072
:1003C000CF2EDD24F02DCC0EDD1EF60111922A95E4
:1003D000E9F720E030E048EC52E40E94D2070E94A6
:1003E000130724E630E040E050E00E9435084B015E
:1003F0005C018B01C901B7014AE050E00E947B0813
:10040000C401B6014AE050E00E947B08C7010E9487
:10041000B1018EE20E94A3010A30110518F480E3B5
:100420000E94A301CE0106960E94B1012A960FB642
:10043000F894DEBF0FBECDBFDF91CF911F910F911A
:10044000FF90EF90DF90CF90BF90AF909F908F90F4
:1004500008958FE59AEE0197F1F700C00000C69865
:1004600088B38C6088BB0E9419010E9419010E9408
:100470001901C3980E94190188E20E9428018CE0AA
:100480000E94280186E00E94280181E00E94280144
:1004900008951F920F920FB60F9211240F900FBE66
:1004A0000F901F9018951F920F920FB60F92112464
:1004B0002F933F938F939F9386B597B59093340175
:1004C0008093330180913301909134012091350163
:1004D00030913601821B930B909327018093260164
:1004E00080913301909134019093360180933501CE
:1004F00081E0809325019F918F913F912F910F90E3
:100500000FBE0F901F9018951F920F920FB60F926B
:1005100011248F9380913201813091F480913701C1
:100520008F5F80933701809137018E3149F481E0EC
:1005300080931D01109237011092320180931B01AC
:100540008F910F900FBE0F901F90189580E10E9421
:1005500049008FEF87BB0E9429028EB584608EBD53
:100560008EB580688EBD8EB58F7B8EBD8E98A09A1D
:10057000A19A89B7846089BF89B7806289BF85B72E
:10058000836085BF789408954F925F926F927F92B7
:100590008F929F92AF92BF92CF92DF92EF92FF9293
:1005A0000F931F93CF93DF93FC01EB017A01690155
:1005B000808191810097A9F4809126019091270173
:1005C000909327018093260180819181009749F4BF
:1005D000188219821A821B82109222011092200125
:1005E0008AC080912001813009F05DC080819181B5
:1005F0009C012C5330402531310528F588809980A5
:10060000AA80BB808091220181508093220141E029
:1006100050E060E070E02A013B0104C0440C551C2E
:10062000661C771C8A95D2F7D301C20180959095FC
:10063000A095B09588219921AA21BB21888399830F
:10064000AA83BB833EC0825890408531910508F54E
:1006500088809980AA80BB808091220181508093FC
:10066000220141E050E060E070E02A013B0104C05B
:10067000440C551C661C771C8A95D2F7D301C20125
:1006800088299929AA29BB2988839983AA83BB83AE
:1006900018C0188219821A821B8280E2809322017C
:1006A0001092200128C0808191818052934085362C
:1006B000910538F481E080932001188219821A8212
:1006C0001B82809122018823B1F488819981AA81BB
:1006D000BB81CD01AA27BB27F70180838F3731F477
:1006E0008881F601808381E0F801808380E2809335
:1006F000220110922001DF91CF911F910F91FF9065
:10070000EF90DF90CF90BF90AF909F908F907F90B1
:100710006F905F904F9008950F931F93FC0180811D
:100720008F3709F0DEC0FB0180818F3FB1F48091EB
:1007300023018A3028F4F901E80FF11D108202C06C
:10074000F901128687E0FA018083F8018083109214
:100750002301C9010E945600C4C0809123018A3040
:1007600008F0BFC099E0F8019083FB019081953AB1
:1007700009F470C0963A88F49F3781F1903838F4C4
:100780009D3309F497C09F3409F0ABC09FC09739DF
:10079000C9F09F3909F0A5C039C09D3B09F466C076
:1007A0009E3B38F49D3A09F479C0953B09F099C015
:1007B00069C0973C09F442C09F3EA1F19F3B09F0FC
:1007C00090C018C0280F311D90E3F90190838F5F0E
:1007D0008093230180E30E94520083C0280F311DC3
:1007E00091E3F90190838F5F8093230181E30E945D
:1007F000520077C0280F311D92E3F90190838F5F7B
:100800008093230182E30E9452006BC0280F311DA8
:1008100093E3F90190838F5F8093230183E30E9428
:1008200052005FC0280F311D94E3F90190838F5F60
:100830008093230184E30E94520053C0280F311D8E
:1008400095E3F90190838F5F8093230185E30E94F4
:10085000520047C0280F311D96E3F90190838F5F46
:100860008093230186E30E9452003BC0280F311D74
:1008700097E3F90190838F5F8093230187E30E94C0
:1008800052002FC0280F311D98E3F90190838F5F2C
:100890008093230188E30E94520023C0280F311D5A
:1008A00099E3F90190838F5F8093230189E30E948C
:1008B000520017C0280F311D90E7F90190838F5F18
:1008C0008093230180E70E9452000BC081508093E7
:1008D0002301280F311D80E3F90180838AE0F801AC
:1008E00080831F910F910895EF92FF920F931F93B2
:1008F000CF93DF93EC018B017A0180E690E00E94B8
:1009000056008881882331F486E0F8018083F7015E
:10091000808315C0CE0166E670E00E947208282F21
:10092000392F2115310531F484E0F8018083F70176
:10093000808305C085E0F8018083F7018083DF9123
:10094000CF911F910F91FF90EF9008952091210179
:100950002B3069F4FC0180818D3349F58CE0809364
:1009600021019DE390932401FB0180830895FC0104
:1009700080818F3FA1F48BE080932101FB01808374
:1009800080911C018E3031F48DE080931C018FEF3B
:1009900085BB08958EE080931C0115BA08958F34AD
:1009A00031F48BE0809321018FE4FB018083089573
:1009B000CF93DF93EC018881863009F447C08730FC
:1009C00088F4833049F1843030F48130E9F08230AA
:1009D00009F0B3C05BC0843009F450C0853009F021
:1009E000ACC040C08B3009F48DC08C3030F48930FD
:1009F000F9F08A3009F0A1C01FC08C3009F44EC054
:100A00008F3409F09AC092C081E00E9458018AE6B2
:100A100090E00E94B10191C081E00E94580185E7F9
:100A200090E00E94B10182E061E00E945E0185C019
:100A30008AE20E94A30181C080E10E94580180E205
:100A40000E94A30180E10E94580177C081E00E94CA
:100A5000580186E890E00E94B10182E061E00E94C6
:100A60005E016BC081E00E94580185E990E00E9420
:100A7000B10182E061E00E945E015FC081E00E94FE
:100A8000580188EA90E00E94B10157C081E00E94BD
:100A9000580188EB90E00E94B1014FC080911C0189
:100AA0008E30C1F481E00E9458018BEC90E00E94EE
:100AB000B10182E061E00E945E0188ED90E00E9459
:100AC000B10182E069E00E945E018CED90E00E943D
:100AD000B10133C081E00E9458018FED90E00E9487
:100AE000B10182E061E00E945E0188ED90E00E9429
:100AF000B10182E069E00E945E018CED90E00E940D
:100B0000B1011BC080911C018D3041F481E00E9435
:100B100058018DEE90E00E94B1010FC081E00E946B
:100B200058018CEF90E00E94B10107C081E00E9463
:100B3000580188EA90E00E94B1011882DF91CF91BC
:100B40000895CF93DF93CDB7DEB762970FB6F894D1
:100B5000DEBF0FBECDBF0E94A6028FEF84BB1982FD
:100B60001A821B821C821D821E821F82FE01389601
:100B70008AE0DF011D928A95E9F788E08A8B8BE194
:100B800091E00E94D8040F2EF6E2EF2EF1E0FF2E46
:100B9000F02DBB24B3940F2EFBE1CF2EF1E0DF2E1E
:100BA000F02D0F2EF3E0AF2EF02D8091250188233C
:100BB00009F463C010922501C701BE016F5F7F4F2A
:100BC000AE014A5F5F4F9E012B5F3F4F8E01095F71
:100BD0001F4F0E94C4028F81813009F04EC01F82D6
:100BE000B09232011092370180911D01813049F499
:100BF0008D818F3F09F040C0A0921D01A0921B0182
:100C00003BC080911D01833071F5CE010696BE0177
:100C10006B5F7F4FAE014E5E5F4F9E01285F3F4F7F
:100C200086010E948C038A89873031F5CE010896AF
:100C3000BE016E5E7F4FA6010E9474048A898430D3
:100C400021F4B2E0B0931D0117C0853029F48BE088
:100C500091E00E94560010C0863071F485E191E069
:100C60000E94560009C080911D01823029F4CE01F6
:100C70000596B6010E94A6041D8280911B0188235F
:100C800009F493CFC6010E94D8048FCF5058BB27D8
:100C9000AA270ED04DC13ED130F043D120F031F41F
:100CA0009F3F11F41EF433C10EF4E095E7FB29C118
:100CB000E92F4FD180F3BA176207730784079507AE
:100CC00018F071F49EF567C10EF4E0950B2EBA2F63
:100CD000A02D0B01B90190010C01CA01A001112442
:100CE000FF27591B99F0593F50F4503E68F11A16EE
:100CF000F040A22F232F342F4427585FF3CF46957F
:100D000037952795A795F0405395C9F77EF41F16A0
:100D1000BA0B620B730B840BBAF09150A1F0FF0F6A
:100D2000BB1F661F771F881FC2F70EC0BA0F621F56
:100D3000731F841F48F4879577956795B795F79546
:100D40009E3F08F0B3CF9395880F08F09927EE0FD8
:100D50009795879508950CD0EBC0E3D040F0DAD09A
:100D600030F021F45F3F19F0CCC0511115C1CFC054
:100D7000F0D098F39923C9F35523B1F3951B550B84
:100D8000BB27AA2762177307840738F09F5F5F4F5E
:100D9000220F331F441FAA1FA9F333D00E2E3AF09F
:100DA000E0E830D091505040E695001CCAF729D0B9
:100DB000FE2F27D0660F771F881FBB1F2617370708
:100DC0004807AB07B0E809F0BB0B802DBF01FF2738
:100DD00093585F4F2AF09E3F510568F092C0DCC0E7
:100DE0005F3FECF3983EDCF3869577956795B79572
:100DF000F7959F5FC9F7880F911D9695879597F98D
:100E00000895E1E0660F771F881FBB1F6217730705
:100E10008407BA0720F0621B730B840BBA0BEE1F1A
:100E200088F7E095089504D06894B111B5C008958D
:100E300098D088F09F5790F0B92F9927B751A0F01C
:100E4000D1F0660F771F881F991F1AF0BA95C9F75E
:100E500012C0B13081F09FD0B1E008959CC0672FDF
:100E6000782F8827B85F39F0B93FCCF3869577950E
:100E70006795B395D9F73EF49095809570956195F7
:100E80007F4F8F4F9F4F0895E89409C097FB3EF422
:100E900090958095709561957F4F8F4F9F4F9923C7
:100EA000A9F0F92F96E9BB279395F6958795779545
:100EB0006795B795F111F8CFFAF4BB0F11F460FF05
:100EC0001BC06F5F7F4F8F4F9F4F16C0882311F05D
:100ED00096E911C0772321F09EE8872F762F05C071
:100EE000662371F096E8862F70E060E02AF09A950C
:100EF000660F771F881FDAF7880F9695879597F901
:100F0000089597F99F6780E870E060E008959FEF8B
:100F100080EC089500240A94161617061806090690
:100F2000089500240A94121613061406050608955F
:100F3000092E0394000C11F4882352F0BB0F40F4E7
:100F4000BF2B11F460FF04C06F5F7F4F8F4F9F4F27
:100F5000089557FD9058440F551F59F05F3F71F0A9
:100F60004795880F97FB991F61F09F3F79F0879510
:100F70000895121613061406551FF2CF4695F1DF99
:100F800008C0161617061806991FF1CF8695710529
:100F9000610508940895E894BB2766277727CB015D
:100FA00097F908950BD0C4CFB5DF28F0BADF18F059
:100FB000952309F0A6CFABCF1124EECFCADFA0F363
:100FC000959FD1F3950F50E0551F629FF001729FDE
:100FD000BB27F00DB11D639FAA27F00DB11DAA1FFD
:100FE000649F6627B00DA11D661F829F2227B00D4A
:100FF000A11D621F739FB00DA11D621F839FA00DD5
:10100000611D221F749F3327A00D611D231F849F24
:10101000600D211D822F762F6A2F11249F5750407B
:101020008AF0E1F088234AF0EE0FFF1FBB1F661F16
:10103000771F881F91505040A9F79E3F510570F0CF
:1010400060CFAACF5F3FECF3983EDCF386957795AF
:101050006795B795F795E7959F5FC1F7FE2B880FCA
:10106000911D9695879597F9089597FB092E05266A
:101070000ED057FD04D014D00AD0001C38F450957F
:101080004095309521953F4F4F4F5F4F0895F6F7AC
:1010900090958095709561957F4F8F4F9F4F0895E4
:1010A000A1E21A2EAA1BBB1BFD010DC0AA1FBB1F6C
:1010B000EE1FFF1FA217B307E407F50720F0A21BDE
:1010C000B30BE40BF50B661F771F881F991F1A944B
:1010D00069F760957095809590959B01AC01BD0175
:1010E000CF010895FB01DC018D9101908019011061
:1010F000D9F3990B0895FB019F01E8944230C4F0A5
:101100004532B4F44A3029F497FB1EF4909581954A
:101110009F4F642F77270E94AC08805D8A330CF0C4
:10112000895D8193CB010097A1F716F45DE251939D
:101130001082C9010C949C08DC01FC01672F71919D
:101140007723E1F7329704C07C916D9370836291AD
:10115000AE17BF07C8F30895AA1BBB1B51E107C018
:10116000AA1FBB1FA617B70710F0A61BB70B881F37
:10117000991F5A95A9F780959095BC01CD010895C6
:04118000F894FFCF11
:10118400636865636B003132330057656C636F6D60
:1011940065202E2E00456E7465722070617373771E
:1011A4006F7264203A00456D7074792070617373B6
:1011B400776F726400496E636F7272656374207036
:1011C400617373776F72640053656C656374206F29
:1011D4007074696F6E203A0053656C6563742061A6
:1011E4006E206F7074696F6E203A00537769746370
:1011F40068206F6E20203F00796573006E6F005386
:101204007769746368206F666620203F00537973A2
:1012140074656D20737461727465640053797374BA
:10122400656D2073746F7070656400696E636F72AE
:101234007265637400656D70747900010E0180003D
:02124400200B7D
:00000001FF
