:100000000C942A000C9447000C9447000C94470071
:100010000C9447000C9447000C9419010C94470071
:100020000C9447000C9447000C9447000C94470034
:100030000C9447000C9447000C9447000C94470024
:100040000C9447000C9447000C9447000C94470014
:100050000C94470011241FBECFE5D8E0DEBFCDBF12
:1000600010E0A0E6B0E0E2E9FBE002C005900D92EE
:10007000AE3BB107D9F710E0AEEBB0E001C01D9286
:10008000A23DB107E1F70E940A030C94C7050C9446
:1000900000009AB198699AB989B910BC80B5866890
:1000A00080BD08955D9BFECF8CB90895CF93DF93FB
:1000B000EC018881882331F021960E9452008991B9
:1000C0008823D9F7DF91CF9108958BB1881F8827B6
:1000D000881F08950E946500882311F08CB108954F
:1000E0000895CF92DF92EF92FF920F931F93CF93D9
:1000F000DF937B018230A8F08250C82EDD24EB0113
:10010000CC0DDD1D21968B010E946A00F8018193C0
:100110008F01EC17FD07C1F70894C11CD11CEC0C32
:10012000FD1CF7011082DF91CF911F910F91FF907D
:10013000EF90DF90CF9008951F93CF93DF9320E04F
:1001400030E048EC52E40E941E050E945F0424E661
:1001500030E040E050E00E948105132FD62FC72FDA
:10016000822F0E945200812F0E9452008D2F0E94E8
:1001700052008C2F0E945200DF91CF911F91089561
:10018000CF92DF92EF92FF920F931F93CF93DF9363
:1001900000D000D0CDB7DEB719821A821B821C8234
:1001A0008E010F5F1F4F0F2EF5E0EF2EFF24F02D75
:1001B000EC0EFD1E0E9465008823E1F30E946A0098
:1001C000F801808311820E5F1F4F0E151F0591F7F6
:1001D00069817A81882777FD8095982F0E94920403
:1001E0006B017C016B817C81882777FD8095982F3E
:1001F0000E94920420E030E048EC52E40E94F703B1
:100200009B01AC01C701B6010E949303462F572FF3
:10021000682F792FCB01BA010F900F900F900F909C
:10022000DF91CF911F910F91FF90EF90DF90CF90D2
:1002300008951F920F920FB60F9211242F933F93A0
:100240008F939F9386B597B59093CF008093CE0000
:100250008091CE009091CF002091D0003091D100BC
:10026000821B930B9093C3008093C2008091CE00B9
:100270009091CF009093D1008093D00081E0809343
:10028000C1009F918F913F912F910F900FBE0F90C2
:100290001F90189580E10E9449008EB584608EBD44
:1002A0008EB580688EBD8EB58F7B8EBD8E9889B7DA
:1002B000806289BF789408954F925F926F927F9287
:1002C0008F929F92AF92BF92CF92DF92EF92FF9266
:1002D0000F931F93CF93DF93FC01EB016A01790128
:1002E00080819181009789F48091C2009091C30030
:1002F0009093C3008093C20080819181009729F47C
:100300001092BF001092BD0082C08091BD0081306C
:1003100009F05DC0808191819C012C5330402531D2
:10032000310528F588809980AA80BB808091BF0024
:1003300081508093BF0041E050E060E070E02A010E
:100340003B0104C0440C551C661C771C8A95D2F7EF
:10035000D301C20180959095A095B09588219921EF
:10036000AA21BB2188839983AA83BB833EC082587C
:1003700090408531910508F588809980AA80BB80DE
:100380008091BF0081508093BF0041E050E060E069
:1003900070E02A013B0104C0440C551C661C771C0C
:1003A0008A95D2F7D301C20188299929AA29BB29A4
:1003B00088839983AA83BB8318C0188219821A8202
:1003C0001B8280E28093BF001092BD0020C080811C
:1003D0009181805293408536910538F481E0809375
:1003E000BD00188219821A821B828091BF00882367
:1003F00071F481E0F80180838881F70180838A812C
:10040000F601808380E28093BF001092BD00DF91EF
:10041000CF911F910F91FF90EF90DF90CF90BF9001
:10042000AF909F908F907F906F905F904F900895C6
:10043000FC0180818F3F09F0B9C0FB0190819D359F
:10044000A1F48091C0008A3028F4F901E80FF11D71
:10045000108202C0F901128686E0FA0180831092B0
:10046000C000C9010E94560008958091C0008A30E2
:1004700008F09CC0953B09F482C0963B78F497390C
:10048000F1F0983920F4953809F090C03CC0953AC5
:1004900009F45DC09D3A09F089C07DC09F3CD9F048
:1004A000903D38F49D3B09F45EC0973C09F07EC056
:1004B00042C0973EE1F09F3E09F078C030C0280F5F
:1004C000311D90E3F90190838F5F8093C00080E33A
:1004D0000E9452000895280F311D91E3F901908385
:1004E0008F5F8093C00081E30E9452000895280F1F
:1004F000311D92E3F90190838F5F8093C00082E306
:100500000E9452000895280F311D93E3F901908352
:100510008F5F8093C00083E30E9452000895280FEC
:10052000311D94E3F90190838F5F8093C00084E3D1
:100530000E9452000895280F311D95E3F901908320
:100540008F5F8093C00085E30E9452000895280FBA
:10055000311D96E3F90190838F5F8093C00086E39D
:100560000E9452000895280F311D97E3F9019083EE
:100570008F5F8093C00087E30E9452000895280F88
:10058000311D98E3F90190838F5F8093C00088E369
:100590000E9452000895280F311D99E3F9019083BC
:1005A0008F5F8093C00089E30E94520008950F93EB
:1005B0001F93CF93DF93EC018B0180E690E00E94C4
:1005C00056008881882341F485E0F801808386E61F
:1005D00090E00E94560019C0CE016EE670E00E94C5
:1005E000BE05282F392F2115310541F483E0F8018C
:1005F000808384E790E00E94560007C084E0F80101
:1006000080838EE790E00E945600DF91CF911F918A
:100610000F910895CF93DF93CDB7DEB762970FB6F2
:10062000F894DEBF0FBECDBF0E944A018AE890E079
:100630000E94560019821A821B821C821D821E8211
:100640001F82FE0138968AE0DF011D928A95E9F744
:100650001A8A0F2EF2ECEF2EF0E0FF2EF02D809193
:10066000C1008823E1F31092C100C701BE016F5F92
:100670007F4FAE014A5F5F4F9E012B5F3F4F8E0160
:10068000095F1F4F0E945C018F81813041F71F82FB
:100690008091BE00882361F48D818D3509F040C0C2
:1006A00082E08093BE0086E990E00E94560038C048
:1006B000823081F5CE010696BE016B5F7F4FAE01A1
:1006C0004E5E5F4F9E01285F3F4F0E9418028A894D
:1006D000863031F5CE010896BE016E5E7F4F0E94D6
:1006E000D7028A89833041F4B1E0B093BE008CE92F
:1006F00090E00E94560014C0843029F484EA90E00F
:100700000E9456000DC0853059F48EEA90E00E9498
:10071000560006C0813021F484EB90E00E94560020
:100720001D829DCF5058BB27AA270ED04DC13ED168
:1007300030F043D120F031F49F3F11F41EF433C167
:100740000EF4E095E7FB29C1E92F4FD180F3BA17EA
:10075000620773078407950718F071F49EF567C167
:100760000EF4E0950B2EBA2FA02D0B01B9019001CC
:100770000C01CA01A0011124FF27591B99F0593F10
:1007800050F4503E68F11A16F040A22F232F342F58
:100790004427585FF3CF469537952795A795F040A6
:1007A0005395C9F77EF41F16BA0B620B730B840BBB
:1007B000BAF09150A1F0FF0FBB1F661F771F881F73
:1007C000C2F70EC0BA0F621F731F841F48F48795CB
:1007D00077956795B795F7959E3F08F0B3CF9395BA
:1007E000880F08F09927EE0F9795879508950CD0FC
:1007F000EBC0E3D040F0DAD030F021F45F3F19F0E5
:10080000CCC0511115C1CFC0F0D098F39923C9F3D2
:100810005523B1F3951B550BBB27AA276217730706
:10082000840738F09F5F5F4F220F331F441FAA1FBA
:10083000A9F333D00E2E3AF0E0E830D0915050407A
:10084000E695001CCAF729D0FE2F27D0660F771F28
:10085000881FBB1F261737074807AB07B0E809F00A
:10086000BB0B802DBF01FF2793585F4F2AF09E3F9F
:10087000510568F092C0DCC05F3FECF3983EDCF3BA
:10088000869577956795B795F7959F5FC9F7880F18
:10089000911D9695879597F90895E1E0660F771F6A
:1008A000881FBB1F621773078407BA0720F0621BFB
:1008B000730B840BBA0BEE1F88F7E095089504D0F4
:1008C0006894B111B5C0089598D088F09F5790F002
:1008D000B92F9927B751A0F0D1F0660F771F881F65
:1008E000991F1AF0BA95C9F712C0B13081F09FD0A4
:1008F000B1E008959CC0672F782F8827B85F39F042
:10090000B93FCCF3869577956795B395D9F73EF4C3
:1009100090958095709561957F4F8F4F9F4F08956B
:10092000E89409C097FB3EF4909580957095619589
:100930007F4F8F4F9F4F9923A9F0F92F96E9BB273F
:100940009395F695879577956795B795F111F8CFBB
:10095000FAF4BB0F11F460FF1BC06F5F7F4F8F4F26
:100960009F4F16C0882311F096E911C0772321F01C
:100970009EE8872F762F05C0662371F096E8862FB4
:1009800070E060E02AF09A95660F771F881FDAF70B
:10099000880F9695879597F9089597F99F6780E84E
:1009A00070E060E008959FEF80EC089500240A94C1
:1009B0001616170618060906089500240A9412163A
:1009C0001306140605060895092E0394000C11F46D
:1009D000882352F0BB0F40F4BF2B11F460FF04C01A
:1009E0006F5F7F4F8F4F9F4F089557FD9058440F73
:1009F000551F59F05F3F71F04795880F97FB991F7E
:100A000061F09F3F79F0879508951216130614063A
:100A1000551FF2CF4695F1DF08C0161617061806C7
:100A2000991FF1CF86957105610508940895E894A2
:100A3000BB2766277727CB0197F908950BD0C4CF42
:100A4000B5DF28F0BADF18F0952309F0A6CFABCFB9
:100A50001124EECFCADFA0F3959FD1F3950F50E09C
:100A6000551F629FF001729FBB27F00DB11D639F60
:100A7000AA27F00DB11DAA1F649F6627B00DA11D06
:100A8000661F829F2227B00DA11D621F739FB00DAC
:100A9000A11D621F839FA00D611D221F749F33271C
:100AA000A00D611D231F849F600D211D822F762FB5
:100AB0006A2F11249F5750408AF0E1F088234AF0B2
:100AC000EE0FFF1FBB1F661F771F881F91505040FE
:100AD000A9F79E3F510570F060CFAACF5F3FECF3BE
:100AE000983EDCF3869577956795B795F795E795EA
:100AF0009F5FC1F7FE2B880F911D9695879597F9FB
:100B0000089597FB092E05260ED057FD04D014D06A
:100B10000AD0001C38F450954095309521953F4FF0
:100B20004F4F5F4F0895F6F79095809570956195BA
:100B30007F4F8F4F9F4F0895A1E21A2EAA1BBB1B18
:100B4000FD010DC0AA1FBB1FEE1FFF1FA217B30799
:100B5000E407F50720F0A21BB30BE40BF50B661FAF
:100B6000771F881F991F1A9469F760957095809573
:100B700090959B01AC01BD01CF010895FB01DC0103
:100B80008D91019080190110D9F3990B0895F89473
:020B9000FFCF95
:100B9200636865636B00656D7074797979003031D3
:100BA20032333400636F7272656374747400696EF9
:100BB200636F7272656374747400537461727469E2
:100BC2006E67203A2000726561647900636F727209
:100BD20065637400696E636F727265637400656D3C
:0E0BE20070747900556E6C6F636B6564002053
:00000001FF
