S0170000497252656D6F7465436F6E74726F6C2E7372656305
S11300000C942A000C9447000C9447000C9447006D
S11300100C9447000C9447000C9419010C9447006D
S11300200C9447000C9447000C9447000C94470030
S11300300C9447000C9447000C9447000C94470020
S11300400C9447000C9447000C9447000C94470010
S11300500C94470011241FBECFE5D8E0DEBFCDBF0E
S113006010E0A0E6B0E0ECE6F9E002C005900D92E5
S1130070A238B107D9F710E0A2E8B0E001C01D92A0
S1130080AA38B107E1F70E9407020C94B4040C9457
S113009000009AB198699AB989B910BC80B586688C
S11300A080BD08955D9BFECF8CB90895CF93DF93F7
S11300B0EC018881882331F021960E9452008991B5
S11300C08823D9F7DF91CF9108958BB1881F8827B2
S11300D0881F08950E946500882311F08CB108954B
S11300E00895CF92DF92EF92FF920F931F93CF93D5
S11300F0DF937B018230A8F08250C82EDD24EB010F
S1130100CC0DDD1D21968B010E946A00F8018193BC
S11301108F01EC17FD07C1F70894C11CD11CEC0C2E
S1130120FD1CF7011082DF91CF911F910F91FF9079
S1130130EF90DF90CF9008951F93CF93DF9320E04B
S113014030E048EC52E40E9414040E94550324E673
S113015030E040E050E00E947704132FD62FC72FE1
S1130160822F0E945200812F0E9452008D2F0E94E4
S113017052008C2F0E945200DF91CF911F9108955D
S1130180CF92DF92EF92FF920F931F93CF93DF935F
S113019000D000D0CDB7DEB719821A821B821C8230
S11301A08E010F5F1F4F0F2EF5E0EF2EFF24F02D71
S11301B0EC0EFD1E0E9465008823E1F30E946A0094
S11301C0F801808311820E5F1F4F0E151F0591F7F2
S11301D069817A81882777FD8095982F0E9488030A
S11301E06B017C016B817C81882777FD8095982F3A
S11301F00E94880320E030E048EC52E40E94ED02C3
S11302009B01AC01C701B6010E948902462F572FFA
S1130210682F792FCB01BA010F900F900F900F9098
S1130220DF91CF911F910F91FF90EF90DF90CF90CE
S113023008951F920F920FB60F9211242F933F939C
S11302408F939F9386B597B590938700809386008C
S113025080918600909187002091880030918900D8
S1130260821B930B90938500809384008091860079
S113027090918700909389008093880081E0809317
S113028083009F918F913F912F910F900FBE0F90FC
S11302901F90189580E10E9449008EB584608EBD40
S11302A08EB580688EBD8EB58F7B8EBD8E9889B7D6
S11302B0806289BF789408958F929F92AF92BF9283
S11302C0CF92DF92EF92FF920F931F93FC018081F4
S11302D09181009789F48091840090918500909396
S11302E085008093840080819181009729F4109285
S11302F082001092810080C080918100813009F0D9
S113030060C0808191819C012C533040253131059E
S113031030F5FB01C080D180E280F38080918200BF
S113032081508093820001E010E020E030E0480139
S1130330590104C0880C991CAA1CBB1C8A95D2F7CD
S1130340D501C40180959095A095B0958C219D21EF
S1130350AE21BF2180839183A283B38341C082589D
S113036090408531910510F5FB01C080D180E28079
S1130370F3808091820081508093820001E010E03C
S113038020E030E04801590104C0880C991CAA1CE3
S1130390BB1C8A95D2F7D501C4018C299D29AE29AD
S11303A0BF2980839183A283B3831AC0FB01108287
S11303B011821282138280E2809382001092810063
S11303C01BC080819181805293408536910540F411
S11303D081E080938100FB011082118212821382DA
S11303E080918200882341F481E0FA01808380E2D5
S11303F080938200109281001F910F91FF90EF90E3
S1130400DF90CF90BF90AF909F908F900895CF933F
S1130410DF9300D000D00F92CDB7DEB70E944A011F
S113042080E690E00E94560019821A821B821C8288
S11304301D8204E810E00F2EFCE6EF2EF0E0FF2E04
S1130440F02D0F2EFCE7CF2EF0E0DF2EF02D0F2E37
S1130450F7E7AF2EF0E0BF2EF02D0F2EF2E78F2E30
S1130460F0E09F2EF02D809183008823E1F3109219
S11304708300C801BE016F5F7F4FAE014B5F5F4FCA
S11304800E945C018D81813071F71D8289819A817E
S1130490AB81BC818D3522EA92072FEFA20720E0C1
S11304A0B20711F18E3522EA92072FEFA20720E05E
S11304B0B20748F48D3922E692072FEFA20720E015
S11304C0B20709F515C08D3322EC92072FEFA2076E
S11304D020E0B207A9F08D3122EE92072FEFA20798
S11304E020E0B20781F408C0C7010E9456000BC087
S11304F0C4010E94560007C0C5010E94560003C0F3
S1130500C6010E94560019821A821B821C82ABCF3C
S11305105058BB27AA270ED04DC13ED130F043D14D
S113052020F031F49F3F11F41EF433C10EF4E09532
S1130530E7FB29C1E92F4FD180F3BA17620773078C
S11305408407950718F071F49EF567C10EF4E095E1
S11305500B2EBA2FA02D0B01B90190010C01CA0179
S1130560A0011124FF27591B99F0593F50F4503E24
S113057068F11A16F040A22F232F342F4427585F16
S1130580F3CF469537952795A795F0405395C9F72E
S11305907EF41F16BA0B620B730B840BBAF09150E6
S11305A0A1F0FF0FBB1F661F771F881FC2F70EC085
S11305B0BA0F621F731F841F48F487957795679558
S11305C0B795F7959E3F08F0B3CF9395880F08F041
S11305D09927EE0F9795879508950CD0EBC0E3D03B
S11305E040F0DAD030F021F45F3F19F0CCC0511163
S11305F015C1CFC0F0D098F39923C9F35523B1F3B3
S1130600951B550BBB27AA2762177307840738F07D
S11306109F5F5F4F220F331F441FAA1FA9F333D0DC
S11306200E2E3AF0E0E830D091505040E695001C90
S1130630CAF729D0FE2F27D0660F771F881FBB1F4C
S1130640261737074807AB07B0E809F0BB0B802D26
S1130650BF01FF2793585F4F2AF09E3F510568F072
S113066092C0DCC05F3FECF3983EDCF3869577954F
S11306706795B795F7959F5FC9F7880F911D969574
S1130680879597F90895E1E0660F771F881FBB1FD0
S1130690621773078407BA0720F0621B730B840B7D
S11306A0BA0BEE1F88F7E095089504D06894B11151
S11306B0B5C0089598D088F09F5790F0B92F992726
S11306C0B751A0F0D1F0660F771F881F991F1AF059
S11306D0BA95C9F712C0B13081F09FD0B1E0089546
S11306E09CC0672F782F8827B85F39F0B93FCCF3C7
S11306F0869577956795B395D9F73EF4909580954F
S1130700709561957F4F8F4F9F4F0895E89409C06E
S113071097FB3EF490958095709561957F4F8F4F30
S11307209F4F9923A9F0F92F96E9BB279395F69546
S1130730879577956795B795F111F8CFFAF4BB0FC4
S113074011F460FF1BC06F5F7F4F8F4F9F4F16C028
S1130750882311F096E911C0772321F09EE8872FB2
S1130760762F05C0662371F096E8862F70E060E06E
S11307702AF09A95660F771F881FDAF7880F9695E7
S1130780879597F9089597F99F6780E870E060E08E
S113079008959FEF80EC089500240A941616170616
S11307A018060906089500240A941216130614065E
S11307B005060895092E0394000C11F4882352F0C1
S11307C0BB0F40F4BF2B11F460FF04C06F5F7F4F79
S11307D08F4F9F4F089557FD9058440F551F59F060
S11307E05F3F71F04795880F97FB991F61F09F3F1A
S11307F079F087950895121613061406551FF2CF43
S11308004695F1DF08C0161617061806991FF1CF92
S113081086957105610508940895E894BB276627B9
S11308207727CB0197F908950BD0C4CFB5DF28F013
S1130830BADF18F0952309F0A6CFABCF1124EECF81
S1130840CADFA0F3959FD1F3950F50E0551F629F27
S1130850F001729FBB27F00DB11D639FAA27F00D15
S1130860B11DAA1F649F6627B00DA11D661F829F3C
S11308702227B00DA11D621F739FB00DA11D621F21
S1130880839FA00D611D221F749F3327A00D611D3E
S1130890231F849F600D211D822F762F6A2F112420
S11308A09F5750408AF0E1F088234AF0EE0FFF1F73
S11308B0BB1F661F771F881F91505040A9F79E3FAA
S11308C0510570F060CFAACF5F3FECF3983EDCF3A4
S11308D0869577956795B795F795E7959F5FC1F7E7
S11308E0FE2B880F911D9695879597F9089597FB90
S11308F0092E05260ED057FD04D014D00AD0001CB2
S113090038F450954095309521953F4F4F4F5F4FA8
S11309100895F6F790958095709561957F4F8F4F68
S11309209F4F0895A1E21A2EAA1BBB1BFD010DC007
S1130930AA1FBB1FEE1FFF1FA217B307E407F5078B
S113094020F0A21BB30BE40BF50B661F771F881F67
S1130950991F1A9469F760957095809590959B01FD
S10F0960AC01BD01CF010895F894FFCF55
S113096C5374617274696E67203A2000504F574576
S113097C52004D4F4445004D55544500504C41597F
S105098C002045
S9030000FC
